:107C00001F92CDB7DEB7F894112484B714BE83FD5C
:107C100043D185E08093810088E18093C10086E0B4
:107C20008093C20083E390E09093C5008093C400EA
:107C30002EE088E190E00FB6F894A895809360005C
:107C40000FBE2093600014BC1092B00081E084B994
:107C500085B98CE087B988B980E88AB98BB98AB1CF
:107C600088668AB984B18C6284B92A9A88E58CBD09
:107C700083E01EBC0DB407FEFDCF8150D1F72A98DA
:107C80002A9A86E028E13EEF41E098E630938500AD
:107C90002093840046BBB09BFECF99B9A895815034
:107CA000A9F7212C312C58E1A52EB12C68E0962E95
:107CB00073E0872E77247394E5E06E2EF1E15F2E5A
:107CC000C3D0813469F4C0D08983CED08981823811
:107CD000F9F0813811F486E001C083E0AED0AAC08B
:107CE000823411F484E103C0853419F485E0CDD0E9
:107CF000A1C0853549F4A8D0182FA6D0212E312C4B
:107D0000382A220C331C95C0863521F484E0BDD07E
:107D100080E0E4CF843609F054C096D0082F10E0FC
:107D2000102F002791D0082B8FD0482E6801E12C0E
:107D3000FF24F39489D0F70181937F01F1E0CF1AFA
:107D4000D108C1F791D085E4481212C013956101A2
:107D5000E12CFF24F394E016F10609F46BC0F7015F
:107D600061917F01C601ACD0FFEFCF1ADF0AF3CFDC
:107D7000F10180925700E89507B600FCFDCF80E046
:107D800090E0FC01F3952081FC01E20DF31DDC0184
:107D9000AF5FBE4F4C9130E0342B09017092570019
:107DA000E895112402960817190759F7F101609216
:107DB0005700E89507B600FCFDCF50925700E895B4
:107DC00039C0843719F540D0E82EF12CFE2CEE2472
:107DD0003BD0E82A39D0898347D089818101853415
:107DE00061F4C80165D029D0F1E0EF1AF1080F5F06
:107DF0001F4FE114F104A9F71DC0F80185918F010F
:107E00001CD0F1E0EF1AF108C1F714C0853739F43E
:107E10002BD08EE112D085E910D08FE05FCF813575
:107E200041F40FB6F894A895A09260000FBE90920E
:107E300060001AD080E101D043CF9091C00095FF3F
:107E4000FCCF8093C600089588E689B98091C00070
:107E500087FFFCCF8091C00084FD01C0A895809170
:107E6000C60098E699B90895EFDF803261F028E006
:107E700088E190E00FB6F894A895809360000FBE5B
:107E800020936000FFCF84E1D8CFCF93C82FDCDFF1
:107E9000C150E9F7CF91E8CF282E88E10FB6F894CA
:107EA00080936000109260000FBEEE27FF270994B8
:107EB000F999FECF92BD81BDF89A992780B50895B2
:107EC000262FF999FECF1FBA92BD81BD20BD0FB6F6
:0C7ED000F894FA9AF99A0FBE01960895F2
:0400000300007C007D
:00000001FF
