:107C00001F92CDB7DEB784B714BE88E10FB6F894E3
:107C100080936000109260000FBE94E095BD95E0E7
:107C20009093810092E09093C0008093C10086E021
:107C30008093C20088E090E09093C5008093C400D8
:107C400081E084B985B98CE087B988B980E88AB9C0
:107C50008BB98AB188668AB984B18C6284B92A9A50
:107C600088E58CBD83E01EBC0DB407FEFDCF8150BE
:107C7000D1F72A982A9A86E028E13EEF41E098E67B
:107C8000309385002093840046BBB09BFECF99B90A
:107C9000A8958150A9F7212C312C08E110E038E09B
:107CA000F32E43E0E42EDD24D39455E0C52E61E1AC
:107CB000962ED6D0813469F4D3D08983F0D08981CF
:107CC0008238F9F0813811F486E001C083E0A3D056
:107CD0009FC0823411F484E103C0853419F485E037
:107CE000EFD096C0853549F4BBD0B82EB9D02B2C37
:107CF000312C382A220C331C8AC0863521F484E0CA
:107D0000DFD080E0E4CF843609F04DC0A9D0A8D000
:107D1000882EA82EB12CA4D0582E612C77247394D1
:107D20009FD0F30181933F01F1E0AF1AB108C1F791
:107D3000B6D085E4581210C03101A12CBB24B394F5
:107D40008A1409F465C0F50161915F01C301C7D0D0
:107D5000FFEF6F1A7F0AF4CFF101E0925700E89528
:107D600007B600FCFDCFA101A0E0B1E02C91129676
:107D7000CD010197FC01808130E0382BFA01090127
:107D8000D0925700E89511244E5F5F4F8A12EECFD4
:107D9000F101C0925700E89507B600FCFDCF909224
:107DA0005700E89535C08437F9F45AD059D0882E59
:107DB00057D0898374D0820C8981853451F4510164
:107DC000C50185D028D0FFEFAF1ABF0A8A10F8CFBF
:107DD0001FC0F1015F018FEFA81AB80A84911BD070
:107DE000F5018A10F7CF14C0853739F458D08EE1E9
:107DF00012D085E910D08FE06ACF813541F40FB6FB
:107E0000F894A895009360000FBEF092600047D0F0
:107E100080E101D04ECF9091C00095FFFCCF8093C0
:107E2000C600089514B815B817B818B81AB81BB812
:107E300019B81092C0001092C1001092C2001092A6
:107E4000C5001092C40015BC16BC1092810010929F
:107E50008500109284001CBC282EE0E0F0E009951B
:107E6000CF93DF9388E689B9C0E0D1E08091C0006C
:107E700087FD09C0A89B02C0CF5FD5BBCB37B0F34D
:107E800080E0D0DFF3CF8091C00084FD01C0A895D1
:107E90008091C60098E699B9DF91CF910895E0DF0F
:107EA000803211F484E1B7CF28E088E190E00FB68A
:107EB000F894A895809360000FBE20936000FFCFD8
:107EC000CF93C82FCDDFC150E9F7CF91E8CFF99913
:107ED000FECF92BD81BDF89A992780B50895262FCF
:107EE000F999FECF1FBA92BD81BD20BD0FB6F8949F
:0A7EF000FA9AF99A0FBE0196089560
:0400000300007C007D
:00000001FF
